:100000000C9438060C9455060C9455060C94550621
:100010000C9455060C9455060C9455060C945506F4
:100020000C9455060C9455060C9455060C945506E4
:100030000C9455060C9455060C9455060C945506D4
:100040000C9455060C9455060C9455060C945506C4
:100050000C94550610110220000200000000000060
:100060000000000000000000000000000000000090
:1000700000000000000000000000000202FEFE0080
:10008000000000000000000000000000001B1B003A
:100090000000000000000000000000000006061E36
:1000A0001E00001E1E0000000000000000000000F6
:1000B0000000000000000000000000000000000739
:1000C0000730F0FE3EF0FE3E0000000000000000A1
:1000D000001F1F031F1F030300000000000000009B
:1000E000000707387CE6FFC68C080000000000000F
:1000F000000000030E183F190F0700000000000069
:100100000000000F0F3C7E42427E3C80E0701C8E5F
:10011000828080000000000010180E0701000F1FF1
:1001200010101F0F000B0B009CFE62E2E23E1C80D1
:1001300000000000000000070F1818191B0E0C0F1C
:100140001D08000000000002021E1E00000000004A
:10015000000000000000000000000000000000009F
:100160000000000000000000000404E0FC0E02009B
:1001700000000000000000000000001F7FE0800081
:1001800000000000000000000000000404021EFC4B
:10019000E000000000000000000000000080F07F90
:1001A0000F00000000000000000000000005051422
:1001B000140E1414000000000000000000000000F5
:1001C0000000000000000000000000000000000827
:1001D00008808080F0F08080800000000000000037
:1001E00000010101070701010100000000000000FB
:1001F00000030300000000000000000000000000F9
:1002000000000000987800000000000000000000DE
:1002100000000004040000000000000000000000D6
:1002200000000000000303030300000000000000C2
:1002300000000000000202000000000000000000BA
:10024000000000000000001818000000000000007E
:1002500000000000000000040400F0FE0E0000009A
:10026000000000000000000000181F070000000050
:100270000000000000000000000808F8FC0E060660
:100280000EFCF80000000000000000070F1810101E
:10029000180F070000000000000000050530180CD2
:1002A000FEFE000000000000000000000000000052
:1002B0001F1F0000000000000000000000080818D8
:1002C0001C0E0686C67C38000000000000000018E6
:1002D0001C1E1B1B1918180000000000000000085D
:1002E00008080C066666E6FE1C0000000000000020
:1002F00000060E1C18181C0F07000000000000006C
:100300000008080080E0701CFEFE000000000000F5
:1003100000000007070606061F1F06000000000079
:100320000000000808F0FE7E6666E6C600000000D9
:100330000000000000060E1C18181C0F070000002B
:1003400000000000000808F0FCCE6666E6CE8C00D7
:1003500000000000000000030F1C1818180F070011
:10036000000000000000000808060606C6F63E0E63
:1003700006000000000000000000001E1F03000037
:10038000000000000000000000080838FCC6C6C6D7
:10039000C6FC380000000000000000070F18181805
:1003A000180F070000000000000000080878FCC6D5
:1003B0008686CEFCF000000000000000000C18193A
:1003C00019191C0F03000000000000000002026069
:1003D00060000000000000000000000000000018A5
:1003E00018000000000000000000000000000002F3
:1003F000026060000000000000000000000000003B
:10040000004C3C0000000000000000000000000064
:1004100000080880E0E06060303018000000000054
:1004200000000000030306060C0C1800000000008A
:1004300000000008086060606060606060000000AC
:100440000000000000030303030303030300000094
:1004500000000000000808306060C0C0808000001C
:1004600000000000000000180C0C06060303010049
:10047000000000000000000808181C0E86C6E67C7C
:100480003800000000000000000000001B1B0000FE
:100490000000000000000000000F0FC0F0789C6C0E
:1004A00066363636C6E67C1CF8E0000F3F70EFD0AB
:1004B0009090908C9F9FD8C46727000B0B0000C0C2
:1004C000F83E063EF8C000000000000000101F0FBC
:1004D00003030303030F1F1000000000000A0AFEBD
:1004E000FEC6C6C6C6C6FEBC000000000000001F57
:1004F0001F1818181818190F070000000000000A2C
:100500000AF0FC0C060606060E1C0800000000009F
:1005100000030F0C181818181C0E0400000000002F
:10052000000A0AFEFE06060606060CFCF0000000A5
:100530000000001F1F18181818180C0F03000000E7
:100540000000000909FEFEC6C6C6C6C6C6C6000033
:1005500000000000001F1F181818181818180000B5
:1005600000000000000808FEFEC6C6C6C6C606009B
:10057000000000000000001F1F000000000000003D
:10058000000000000000000A0AF0FC0C0606868647
:100590008E9C88000000000000030F0C181818182B
:1005A0001C0F070000000000000B0BFEFEC0C0C0C7
:1005B000C0C0C0C0FEFE00000000001F1F00000001
:1005C000000000001F1F00000000000202FEFE00ED
:1005D000000000000000000000000000001F1F00DD
:1005E00000000000000000000000000000080800FB
:1005F0000000000000FEFE000000000000000006F9
:100600000E1C1818180F0700000000000000000A58
:100610000AFEFE80C060F0D80C0602000000000058
:10062000001F1F01000000030F1C18000000000045
:10063000000909FEFE0000000000000000000000AC
:100640000000001F1F1818181818181800000000C4
:100650000000000B0BFEFE1EF8C000C0F81EFEFEE0
:1006600000000000001F1F00010F1E0F01001F1FD0
:1006700000000000000A0AFEFE1C38E0C00000FE78
:10068000FE0000000000001F1F00000001070E1FF9
:100690001F0000000000000A0AF0FC0C0606060617
:1006A0000CFCF0000000000000030F0C18181818D4
:1006B0000C0F030000000000000902FEFEC6C6C6C3
:1006C000C6EE7C38000000000000001F1F00000084
:1006D00000000000000000000000000A0AF0FC0C0E
:1006E000060606060CFCF0000000000000030F0CDC
:1006F000181A1E0C1C3F230000000000000B0BFE0C
:10070000FEC6C6C6C6C66E7C380000000000001FCC
:100710001F00000001030F1E181000000000000958
:1007200009387C66E6C6C6CE9C18000000000000B2
:1007300000060E1C1818181D0F070000000000000E
:10074000000A0A06060606FEFE0606060600000069
:10075000000000000000001F1F000000000000005B
:100760000000000A0AFEFE000000000000FEFE007D
:100770000000000000070F1C181818181C0F0700B5
:1007800000000000000B0B061EF8E0000000E0F87F
:100790000E060000000000000000031F1C1F0300E5
:1007A000000000000000000F0F063EFCC000C0FE6D
:1007B0000EFEC000C0FC1E06000000011F1E1F012F
:1007C00000011F1C1F010000000909060E3CF0E09B
:1007D000F03C0E0600000000000000181C0F030192
:1007E000030F1C18000000000000000A0A060E3C5F
:1007F00070C0C0703C0E0600000000000000000049
:10080000001F1F0000000000000000000009090692
:10081000060686E6763E0E06000000000000001880
:100820001C1F1B19181818180000000000000004F5
:1008300004FEFE06060000000000000000000000AC
:1008400000FFFFC0C000000000000000000000002A
:100850000004040EFEF00000000000000000000094
:1008600000000000073F3C00000000000000000006
:10087000000000030306FEFE000000000000000070
:100880000000000000C0FFFF0000000000000000AA
:100890000000000000080840703C0E0E3C70400054
:1008A0000000000000000000000000000000000048
:1008B0000000000000000009090000000000000026
:1008C0000000000000000000006060606060606088
:1008D0006060000000000000000303020604000046
:1008E0000000000000000000000000000000000008
:1008F00000000000000000000000000808607030E8
:10090000B0B0F0E00000000000000000000E1F1B6F
:1009100019190F1F1000000000000000000909FE57
:10092000FE6030303070E0C0000000000000001FAA
:100930001F0C1818181C0F0700000000000000080A
:1009400008C0E0703030307060000000000000002F
:1009500000070F1C1818181C0C00000000000000F5
:10096000000808C0E070303060FEFE0000000000AB
:10097000000000070F1C18180C1F1F0000000000CB
:100980000000000707C0E0B0B0B0E0C00000000009
:100990000000000000070F1D19190D0500000000E0
:1009A0000000000000070730FCFE36360606000097
:1009B00000000000000000001F1F000000000000F9
:1009C000000000000000000808C0E070303060F057
:1009D000F0000000000000000067EFDCD8D8CCFF7A
:1009E0007F00000000000000000808FEFE603030BC
:1009F00030F0E000000000000000001F1F000000B9
:100A0000001F1F00000000000000000202F6F600B8
:100A1000000000000000000000000000001F1F0098
:100A200000000000000000000000000000030300C0
:100A3000F6F600000000000000000000000000804A
:100A4000FFFF0000000000000000000000000007A1
:100A500007FEFE80C0E03010000000000000000033
:100A6000001F1F0301071E18000000000000000007
:100A7000000202FEFE000000000000000000000076
:100A80000000001F1F000000000000000000000028
:100A90000000000C0CF0F0603030F0E0603030F01E
:100AA000C0000000001F1F0000001F1F0000001FEB
:100AB0001F000000000808F0F060303030F0E00067
:100AC000000000000000001F1F000000001F1F00AA
:100AD000000000000000000800C0E070303070E04E
:100AE000C00000000000000000070F1C18181C0FB9
:100AF0000700000000000000000808F0F06030303F
:100B000070E0C00000000000000000FFFF0C18189B
:100B10001C0F0700000000000000000808C0E07083
:100B2000303060F0F00000000000000000070F1CF3
:100B300018180CFFFF00000000000000000505F081
:100B4000F060303000000000000000000000001FD6
:100B50001F0000000000000000000000000000076F
:100B600007E0F0B0B030706000000000000000004E
:100B7000000C1D191B1B1F0E0000000000000000D0
:100B800000060630FCFE303030000000000000009F
:100B9000000000000F1F18180000000000000000F7
:100BA0000000000808F0F000000000F0F000000075
:100BB00000000000000F1F1818180C1F1F00000075
:100BC0000000000000070770F0800080F070000057
:100BD0000000000000000000031F1C1F03000000B5
:100BE000000000000000000D0D70F0800080F0702B
:100BF000F0800080F07000000000031F1C1F030045
:100C0000031F1C1F030000000007073070E080E096
:100C10007030000000000000000000181C0F030FDF
:100C20001C18000000000000000000090930F0E07E
:100C3000800080E0F03000000000000000006063F1
:100C40007F3E0F0300000000000000000009093093
:100C5000303030B0F0F030300000000000000018FC
:100C60001C1E1B1B191818180000000000000000B3
:100C700011241FBECFE5D8E0DEBFCDBF10E0A0E657
:100C8000B0E0ECECFFE002C005900D92AE36B1078B
:100C9000D9F720E0AEE6B0E001C01D92A237B2075E
:100CA000E1F70E9457060C94E4070C9400008EE6CE
:100CB00090E00E94C0070F2EFFE1EF2EF12CF02DE7
:100CC00004E510E022E030E042E050E060E670E051
:100CD0008EE690E00E946507FFCF27E030E090E0CD
:100CE000C79AAC01022E02C0559547950A94E2F7C7
:100CF00040FF02C0C59A01C0C598C798215031096C
:100D000078F70895862F949895980E946D06959A85
:100D10000895862F949A95980E946D06959A089545
:100D2000CF93C62F872F949A95980E946D068C2F8B
:100D30000E946D06959ACF9108952F923F924F92FF
:100D40005F926F927F928F929F92AF92BF92CF925B
:100D5000DF92EF92FF920F931F93CF93DF93CDB764
:100D6000DEB72A970FB6F894DEBF0FBECDBF6C0179
:100D70004A01590128013701F801749132962491F2
:100D800028873196E491462F50E04E1B5109272FBA
:100D900030E02F5F3F4F220F331F429FC001439F20
:100DA000900D529F900D1124DC011596BA83A983F2
:100DB000B885BB2309F470C000E010E01D82312C1F
:100DC000E72FF0E0FF83EE83212C5C824B8224012D
:100DD000480158C0E981FA81E30DF11D32962B815B
:100DE0003C81E20FF31FE49029861A86F12C040D52
:100DF000151DC701098402C0959587950A94E2F7ED
:100E000080FF25C06AE2C6010E948206B801C601C1
:100E10000E94900661E070E0C6010E9490066BE2BD
:100E2000C6010E94820669857A856A0D7B1DC6010E
:100E30000E94900661E070E0C6010E9490066CE29C
:100E4000C6010E948206B301C6010E949006A985D0
:100E5000BA851196BA87A987189759F63394032D46
:100E600010E00815190508F4B5CFB8E0AB0EB11CB9
:100E7000EE81FF814E1A5F0AFD81FF5FFD832885A9
:100E8000F21751F0032D10E08E819F81880E991E7C
:100E90000815190550F79ECF2A960FB6F894DEBFB5
:100EA0000FBECDBFDF91CF911F910F91FF90EF90BB
:100EB000DF90CF90BF90AF909F908F907F906F907A
:100EC0005F904F903F902F9008952F923F924F92B6
:100ED0005F926F927F928F929F92AF92BF92CF92CA
:100EE000DF92EF92FF920F931F93CF93DF932C012A
:100EF000FB016A014901E80137016081662369F15C
:100F00005F01180183E0280E311C73018E019401EA
:100F1000A601C2010E949D06FE018491F1019491F7
:100F2000F50121915F0130E0291B310990E0019624
:100F3000880F991F289FF001299FF00D389FF00D11
:100F400011243596EC0FFD1FE491F0E03196CE0EA2
:100F5000DF1EF50160816111D8CFDF91CF911F9124
:100F60000F91FF90EF90DF90CF90BF90AF909F9048
:100F70008F907F906F905F904F903F902F9008954B
:100F8000CF93DF93EC018D9A8C9A8E9ABD9ABF9A7B
:100F9000959A969A61E10E94820666E3CE010E94CC
:100FA000820660E0CE010E9489066AE3CE010E94BB
:100FB000820665E0CE010E94890669E2CE010E94A8
:0C0FC0008206DF91CF910895F894FFCFD6
:0E0FCC005374373732352064726976657200CF
:00000001FF
